:100000000C9438000C9489030C94F5030C9461044F
:100010000C94CD040C9439050C9455000C94100CE0
:100020000C9455000C94BE0B0C94A5050C94110671
:100030000C947D060C94E9060C9455070C94C107AA
:100040000C942D080C9499080C9405090C947109D2
:100050000C94DD090C94490A0C94B50AAC00B90063
:10006000C400D100DE00EB00FA00090114012301F5
:1000700011241FBECFEFD4E0DEBFCDBF11E0A0E062
:10008000B1E0E6E1FFE102C005900D92AA31B107AF
:10009000D9F724E0AAE1B1E001C01D92A937B20767
:1000A000E1F70E94AE020C94890F0C94000060FDF1
:1000B00019C0FB01FF230CF43196F595E795E45147
:1000C000FF4FA82FB92F9F012C5E3F4F8081807F6B
:1000D00080839C911296892B808335962E173F073B
:1000E000A9F7089561507109FB01FF230CF43196C3
:1000F000F595E795E451FF4FA82FB92F9F012C5E8E
:100100003F4F80818F7080838D919C911197829554
:100110009295907F9827807F98278D939D939081CB
:10012000892B808335962E173F0759F70895CF9373
:10013000DF93CDB7DEB728970FB6F894DEBF0FBEBA
:10014000CDBF90E0FC01F097EA30F10508F08AC0DD
:10015000E25DFF4F0C94200F81E090E09A83898349
:1001600025E030E03C832B833E832D8398878F836B
:1001700083C01A82198281E090E09C838B839E83E6
:100180008D8318861F8278C081E090E09A838983EE
:100190009C838B832EE030E03E832D8398878F8372
:1001A0006BC081E090E09A8389839C838B832BE0F2
:1001B00030E03E832D8398878F835EC01A82198238
:1001C00085E090E09C838B838BE090E09E838D8321
:1001D00018861F8251C081E090E09A83898324E0D1
:1001E00030E03C832B832BE030E03E832D839887E7
:1001F0008F8342C081E090E09A83898324E030E0DD
:100200003C832B832FE030E03E832D8398878F83C0
:1002100033C081E090E09A8389839C838B839E83A3
:100220008D8318861F8228C081E090E09A8389839D
:1002300025E030E03C832B832FE030E03E832D83AC
:1002400098878F8319C081E090E09A83898325E0A5
:1002500030E03C832B832BE030E03E832D83988776
:100260008F830AC08FE090E09A8389839C838B837D
:100270009E838D8398878F83CE0101960E945700BD
:1002800028960FB6F894DEBF0FBECDBFDF91CF9199
:1002900008958F929F92AF92BF92CF92DF92EF928A
:1002A000FF92CF93DF934B015C01EA0124E630E03B
:1002B00040E050E00E94010F0F2EFAE0CF2ED12C2B
:1002C000E12CF12CF02DA70196010E94010FBE0137
:1002D00080E3820F0E9497002196C501B401A70117
:1002E00096010E94010F862FBE01805D0E9497003B
:1002F000DF91CF91FF90EF90DF90CF90BF90AF90C4
:100300009F908F900895072E000C880B990B42E068
:1003100050E00E9449010895072E000C880B990BAC
:1003200040E050E00E9449010895CF92DF92EF92A1
:10033000FF920F931F93CF93DF93EC0188859985EC
:100340000197998788878C859D8501969D878C87E5
:1003500088899989019731F48E859F8501969F87B9
:100360008E8702C01F861E8681E090E0998B888B65
:100370008E859F85049704F18A859B85181619063A
:10038000DCF440E050E069EF7EE08E819F810E94C6
:10039000D60D0E811F81C12CD12C0F2EF3EFEF2E25
:1003A000FEE0FF2EF02D20E030E0A9016AE572E6C4
:1003B00082E090E00E94C50C88859985892BD9F44C
:1003C00040E050E069EF7EE08E819F810E94D60D73
:1003D0000E811F81C12CD12C0F2EF3EFEF2EFEE0EA
:1003E000FF2EF02D20E030E0A9016AE572E682E000
:1003F00090E00E94C50CC12CD12C0F2EFAE3EF2EF9
:10040000F2E0FF2EF02D8E0120E030E0A9016AE538
:1004100072E682E090E00E94C50CCC84DD840C8101
:100420001D810F2EF3E8EF2EF1E0FF2EF02D20E0DE
:1004300030E0A90160E070E0CB010E94C50CC884E7
:10044000D9840C811D810F2EFCE8EF2EF1E0FF2EE8
:10045000F02D20E030E0A90160E070E0CB010E94C7
:10046000C50CDF91CF911F910F91FF90EF90DF901E
:10047000CF900895CF92DF92EF92FF920F931F9348
:10048000FC01C484D58481E0C81AD108D586C4860D
:10049000048115810F2EF3E8EF2EF1E0FF2EF02DF1
:1004A00020E030E0A90160E070E0CB010E94C50CC3
:1004B0001F910F91FF90EF90DF90CF900895CF9212
:1004C000DF92EF92FF920F931F93CF93DF93EC0194
:1004D000888599850196998788878C859D85892B44
:1004E00081F440E050E06DEF7EE08E819F810E94BC
:1004F000D60D40E050E06DEE7EE08E819F810E943F
:10050000D60DC884D9840C811D810F2EFCE8EF2EF6
:10051000F1E0FF2EF02D20E030E0A90160E070E076
:10052000CB010E94C50CC12CD12C0F2EF5E9EF2E6A
:10053000F1E0FF2EF02D8E0120E030E0A9016AE508
:1005400072E682E090E00E94C50CDF91CF911F918E
:100550000F91FF90EF90DF90CF90089587EB8093FD
:10056000E50087E08093E6008FE08093E70080EC71
:100570008093E40040E050E06FE572E080E091E0BD
:100580000E94D10E0895CF93DF9300D000D0CDB755
:10059000DEB789E192E029EF32E0FC0170979183A8
:1005A0008083409682179307C1F71092EA02109257
:1005B000E902E4E5F1E081E791E0918380838EE850
:1005C00091E0968F858FABEAB1E0B3AFA2AF1D92F9
:1005D0001C92FA83E983E5E5F3E0FC83EB838981F0
:1005E0009A8106960E94480F8B819C81E981FA814D
:1005F000978B868B918F808F83E69EE0948F838F7D
:10060000158214827D96FA83E983EB81FC81E05A9E
:10061000FF4FFC83EB8389819A81885C9140F9F6D6
:10062000ECEEF1E0118210821582148213821282A4
:10063000E1E6F0E080E8808310821092850010925D
:10064000840084E08093810081E080936F000F90AC
:100650000F900F900F90DF91CF910895CF93DF937C
:1006600000D0CDB7DEB79A83898380911201909133
:10067000130106960E94480F892B59F489819A81AB
:10068000909313018093120161E070E006960E943E
:10069000680F0F900F90DF91CF9108950F931F93E4
:1006A000CF93DF93E0912E01F0912F01309761F10C
:1006B0008091160190911701009731F1C0911401BA
:1006C000D0911501AA81BB81109779F0468157819D
:1006D0006085718516960D911D912D913C9119970C
:1006E000401B510B620B730B7AF4FC0120813181AA
:1006F0003093170120931601D183C0839093150185
:10070000809314010E942E03DF91CF911F910F91CE
:1007100008951F920F920FB60F9211242F933F93BB
:100720004F935F936F937F938F939F93AF93BF93F9
:10073000EF93FF932091260130912701409184008F
:1007400050918500C901032E000CAA0BBB0BDC01E4
:100750009927882760E070E0842B952BA62BB72B78
:100760008093280190932901A0932A01B0932B0133
:10077000B09B1BC04091840050918500C901019637
:10078000092E000CAA0BBB0BDC019927882760E01F
:1007900070E0842B952BA62BB72B80932801909388
:1007A0002901A0932A01B0932B01E091C801F09197
:1007B000C901309739F060E070E08091300190918C
:1007C000310109950E944E03FF91EF91BF91AF91C6
:1007D0009F918F917F916F915F914F913F912F9159
:1007E0000F900FBE0F901F9018951F920F920FB68B
:1007F0000F9211242F933F934F935F936F937F93A7
:100800008F939F93AF93BF93EF93FF932091260114
:10081000309127014091840050918500C901032E39
:10082000000CAA0BBB0BDC019927882760E070E065
:10083000842B952BA62BB72B80932801909329010D
:10084000A0932A01B0932B01B09B1BC04091840060
:1008500050918500C9010196092E000CAA0BBB0B13
:10086000DC019927882760E070E0842B952BA62B6C
:10087000B72B8093280190932901A0932A01B0936C
:100880002B01E091CA01F091CB01309739F061E082
:1008900070E0809132019091330109950E944E03DE
:1008A000FF91EF91BF91AF919F918F917F916F9148
:1008B0005F914F913F912F910F900FBE0F901F901E
:1008C00018951F920F920FB60F9211242F933F93FA
:1008D0004F935F936F937F938F939F93AF93BF9348
:1008E000EF93FF93209126013091270140918400DE
:1008F00050918500C901032E000CAA0BBB0BDC0133
:100900009927882760E070E0842B952BA62BB72BC6
:100910008093280190932901A0932A01B0932B0181
:10092000B09B1BC04091840050918500C901019685
:10093000092E000CAA0BBB0BDC019927882760E06D
:1009400070E0842B952BA62BB72B809328019093D6
:100950002901A0932A01B0932B01E091CC01F091E1
:10096000CD01309739F062E070E0809134019091D0
:10097000350109950E944E03FF91EF91BF91AF9110
:100980009F918F917F916F915F914F913F912F91A7
:100990000F900FBE0F901F9018951F920F920FB6D9
:1009A0000F9211242F933F934F935F936F937F93F5
:1009B0008F939F93AF93BF93EF93FF932091260163
:1009C000309127014091840050918500C901032E88
:1009D000000CAA0BBB0BDC019927882760E070E0B4
:1009E000842B952BA62BB72B80932801909329015C
:1009F000A0932A01B0932B01B09B1BC040918400AF
:100A000050918500C9010196092E000CAA0BBB0B61
:100A1000DC019927882760E070E0842B952BA62BBA
:100A2000B72B8093280190932901A0932A01B093BA
:100A30002B01E091CE01F091CF01309739F063E0C6
:100A400070E0809136019091370109950E944E0324
:100A5000FF91EF91BF91AF919F918F917F916F9196
:100A60005F914F913F912F910F900FBE0F901F906C
:100A700018951F920F920FB60F9211242F933F9348
:100A80004F935F936F937F938F939F93AF93BF9396
:100A9000EF93FF932091260130912701409184002C
:100AA00050918500C901032E000CAA0BBB0BDC0181
:100AB0009927882760E070E0842B952BA62BB72B15
:100AC0008093280190932901A0932A01B0932B01D0
:100AD000B09B1BC04091840050918500C9010196D4
:100AE000092E000CAA0BBB0BDC019927882760E0BC
:100AF00070E0842B952BA62BB72B80932801909325
:100B00002901A0932A01B0932B01E091D001F0912B
:100B1000D101309739F064E070E080913801909114
:100B2000390109950E944E03FF91EF91BF91AF915A
:100B30009F918F917F916F915F914F913F912F91F5
:100B40000F900FBE0F901F9018951F920F920FB627
:100B50000F9211242F933F934F935F936F937F9343
:100B60008F939F93AF93BF93EF93FF9320912601B1
:100B7000309127014091840050918500C901032ED6
:100B8000000CAA0BBB0BDC019927882760E070E002
:100B9000842B952BA62BB72B8093280190932901AA
:100BA000A0932A01B0932B01B09B1BC040918400FD
:100BB00050918500C9010196092E000CAA0BBB0BB0
:100BC000DC019927882760E070E0842B952BA62B09
:100BD000B72B8093280190932901A0932A01B09309
:100BE0002B01E091D201F091D301309739F065E00B
:100BF00070E080913A0190913B0109950E944E036B
:100C0000FF91EF91BF91AF919F918F917F916F91E4
:100C10005F914F913F912F910F900FBE0F901F90BA
:100C200018951F920F920FB60F9211242F933F9396
:100C30004F935F936F937F938F939F93AF93BF93E4
:100C4000EF93FF932091260130912701409184007A
:100C500050918500C901032E000CAA0BBB0BDC01CF
:100C60009927882760E070E0842B952BA62BB72B63
:100C70008093280190932901A0932A01B0932B011E
:100C8000B09B1BC04091840050918500C901019622
:100C9000092E000CAA0BBB0BDC019927882760E00A
:100CA00070E0842B952BA62BB72B80932801909373
:100CB0002901A0932A01B0932B01E091D401F09176
:100CC000D501309739F066E070E080913C01909159
:100CD0003D0109950E944E03FF91EF91BF91AF91A5
:100CE0009F918F917F916F915F914F913F912F9144
:100CF0000F900FBE0F901F9018951F920F920FB676
:100D00000F9211242F933F934F935F936F937F9391
:100D10008F939F93AF93BF93EF93FF9320912601FF
:100D2000309127014091840050918500C901032E24
:100D3000000CAA0BBB0BDC019927882760E070E050
:100D4000842B952BA62BB72B8093280190932901F8
:100D5000A0932A01B0932B01B09B1BC0409184004B
:100D600050918500C9010196092E000CAA0BBB0BFE
:100D7000DC019927882760E070E0842B952BA62B57
:100D8000B72B8093280190932901A0932A01B09357
:100D90002B01E091D601F091D701309739F067E04F
:100DA00070E080913E0190913F0109950E944E03B1
:100DB000FF91EF91BF91AF919F918F917F916F9133
:100DC0005F914F913F912F910F900FBE0F901F9009
:100DD00018951F920F920FB60F9211242F933F93E5
:100DE0004F935F936F937F938F939F93AF93BF9333
:100DF000EF93FF93209126013091270140918400C9
:100E000050918500C901032E000CAA0BBB0BDC011D
:100E10009927882760E070E0842B952BA62BB72BB1
:100E20008093280190932901A0932A01B0932B016C
:100E3000B09B1BC04091840050918500C901019670
:100E4000092E000CAA0BBB0BDC019927882760E058
:100E500070E0842B952BA62BB72B809328019093C1
:100E60002901A0932A01B0932B01E091D801F091C0
:100E7000D901309739F068E070E08091400190919D
:100E8000410109950E944E03FF91EF91BF91AF91EF
:100E90009F918F917F916F915F914F913F912F9192
:100EA0000F900FBE0F901F9018951F920F920FB6C4
:100EB0000F9211242F933F934F935F936F937F93E0
:100EC0008F939F93AF93BF93EF93FF93209126014E
:100ED000309127014091840050918500C901032E73
:100EE000000CAA0BBB0BDC019927882760E070E09F
:100EF000842B952BA62BB72B809328019093290147
:100F0000A0932A01B0932B01B09B1BC04091840099
:100F100050918500C9010196092E000CAA0BBB0B4C
:100F2000DC019927882760E070E0842B952BA62BA5
:100F3000B72B8093280190932901A0932A01B093A5
:100F40002B01E091DA01F091DB01309739F069E093
:100F500070E0809142019091430109950E944E03F7
:100F6000FF91EF91BF91AF919F918F917F916F9181
:100F70005F914F913F912F910F900FBE0F901F9057
:100F800018951F920F920FB60F9211242F933F9333
:100F90004F935F936F937F938F939F93AF93BF9381
:100FA000EF93FF9320912601309127014091840017
:100FB00050918500C901032E000CAA0BBB0BDC016C
:100FC0009927882760E070E0842B952BA62BB72B00
:100FD0008093280190932901A0932A01B0932B01BB
:100FE000B09B1BC04091840050918500C9010196BF
:100FF000092E000CAA0BBB0BDC019927882760E0A7
:1010000070E0842B952BA62BB72B8093280190930F
:101010002901A0932A01B0932B01E091DC01F0910A
:10102000DD01309739F06AE070E0809144019091E1
:10103000450109950E944E03FF91EF91BF91AF9139
:101040009F918F917F916F915F914F913F912F91E0
:101050000F900FBE0F901F9018951F920F920FB612
:101060000F9211242F933F934F935F936F937F932E
:101070008F939F93AF93BF93EF93FF93209126019C
:10108000309127014091840050918500C901032EC1
:10109000000CAA0BBB0BDC019927882760E070E0ED
:1010A000842B952BA62BB72B809328019093290195
:1010B000A0932A01B0932B01B09B1BC040918400E8
:1010C00050918500C9010196092E000CAA0BBB0B9B
:1010D000DC019927882760E070E0842B952BA62BF4
:1010E000B72B8093280190932901A0932A01B093F4
:1010F0002B01E091DE01F091DF01309739F06BE0D8
:1011000070E0809146019091470109950E944E033D
:10111000FF91EF91BF91AF919F918F917F916F91CF
:101120005F914F913F912F910F900FBE0F901F90A5
:1011300018951F920F920FB60F9211242F933F9381
:101140004F935F936F937F938F939F93AF93BF93CF
:10115000EF93FF9320912601309127014091840065
:1011600050918500C901032E000CAA0BBB0BDC01BA
:101170009927882760E070E0842B952BA62BB72B4E
:101180008093280190932901A0932A01B0932B0109
:10119000B09B1BC04091840050918500C90101960D
:1011A000092E000CAA0BBB0BDC019927882760E0F5
:1011B00070E0842B952BA62BB72B8093280190935E
:1011C0002901A0932A01B0932B01E091E001F09155
:1011D000E101309739F06CE070E080914801909126
:1011E000490109950E944E03FF91EF91BF91AF9184
:1011F0009F918F917F916F915F914F913F912F912F
:101200000F900FBE0F901F9018951F920F920FB660
:101210000F9211242F933F934F935F936F937F937C
:101220008F939F93AF93BF93EF93FF9320912601EA
:10123000309127014091840050918500C901032E0F
:10124000000CAA0BBB0BDC019927882760E070E03B
:10125000842B952BA62BB72B8093280190932901E3
:10126000A0932A01B0932B01B09B1BC04091840036
:1012700050918500C9010196092E000CAA0BBB0BE9
:10128000DC019927882760E070E0842B952BA62B42
:10129000B72B8093280190932901A0932A01B09342
:1012A0002B01E091E201F091E301309739F06DE01C
:1012B00070E080914A0190914B0109950E944E0384
:1012C000FF91EF91BF91AF919F918F917F916F911E
:1012D0005F914F913F912F910F900FBE0F901F90F4
:1012E00018951F920F920FB60F9211242F933F93D0
:1012F0004F935F936F937F938F939F93AF93BF931E
:10130000EF93FF93209126013091270140918400B3
:1013100050918500C901032E000CAA0BBB0BDC0108
:101320009927882760E070E0842B952BA62BB72B9C
:101330008093280190932901A0932A01B0932B0157
:10134000B09B1BC04091840050918500C90101965B
:10135000092E000CAA0BBB0BDC019927882760E043
:1013600070E0842B952BA62BB72B809328019093AC
:101370002901A0932A01B0932B01E091E401F0919F
:10138000E501309739F06EE070E080914C0190916A
:101390004D0109950E944E03FF91EF91BF91AF91CE
:1013A0009F918F917F916F915F914F913F912F917D
:1013B0000F900FBE0F901F9018951F920F920FB6AF
:1013C0000F9211242F933F934F935F936F937F93CB
:1013D0008F939F93AF93BF93EF93FF932091260139
:1013E000309127014091840050918500C901032E5E
:1013F000000CAA0BBB0BDC019927882760E070E08A
:10140000842B952BA62BB72B809328019093290131
:10141000A0932A01B0932B01B09B1BC04091840084
:1014200050918500C9010196092E000CAA0BBB0B37
:10143000DC019927882760E070E0842B952BA62B90
:10144000B72B8093280190932901A0932A01B09390
:101450002B01E091E601F091E701309739F06FE060
:1014600070E080914E0190914F0109950E944E03CA
:10147000FF91EF91BF91AF919F918F917F916F916C
:101480005F914F913F912F910F900FBE0F901F9042
:1014900018951F920F920FB60F9211242F933F931E
:1014A0004F935F936F937F938F939F93AF93BF936C
:1014B000EF93FF9320912601309127014091840002
:1014C00050918500C901032E000CAA0BBB0BDC0157
:1014D0009927882760E070E0842B952BA62BB72BEB
:1014E0008093280190932901A0932A01B0932B01A6
:1014F000B09B1BC04091840050918500C9010196AA
:10150000092E000CAA0BBB0BDC019927882760E091
:1015100070E0842B952BA62BB72B809328019093FA
:101520002901A0932A01B0932B01E091E801F091E9
:10153000E901309739F060E170E0809150019091BD
:10154000510109950E944E03FF91EF91BF91AF9118
:101550009F918F917F916F915F914F913F912F91CB
:101560000F900FBE0F901F9018951F920F920FB6FD
:101570000F9211242F933F934F935F936F937F9319
:101580008F939F93AF93BF93EF93FF932091260187
:10159000309127014091840050918500C901032EAC
:1015A000000CAA0BBB0BDC019927882760E070E0D8
:1015B000842B952BA62BB72B809328019093290180
:1015C000A0932A01B0932B01B09B1BC040918400D3
:1015D00050918500C9010196092E000CAA0BBB0B86
:1015E000DC019927882760E070E0842B952BA62BDF
:1015F000B72B8093280190932901A0932A01B093DF
:101600002B01E091EA01F091EB01309739F061E1B3
:1016100070E0809152019091530109950E944E0310
:10162000FF91EF91BF91AF919F918F917F916F91BA
:101630005F914F913F912F910F900FBE0F901F9090
:101640001895EF92FF920F931F93CF93DF937B0137
:10165000EB01A881B981109761F1FC010681178126
:101660002085318516964D915D916D917C911997EC
:10167000041715072607370714F41BC0DF01ED9187
:10168000FC911197309749F04681578160857185AB
:1016900004171507260737078CF7EC01F983E88351
:1016A000109721F4F7019183808307C08D939C9359
:1016B00004C0EC01B983A883F5CFDF91CF911F91CE
:1016C0000F91FF90EF900895EF92FF920F931F9369
:1016D000CF93DF937B01EB01A881B981109761F172
:1016E000FC01028113812481358112964D915D9117
:1016F0006D917C911597041715072607370714F489
:101700001BC0DF01ED91FC911197309749F04281A8
:1017100053816481758104171507260737078CF7F5
:10172000EC01F983E883109721F4F701918380831A
:1017300007C08D939C9304C0EC01B983A883F5CFB7
:10174000DF91CF911F910F91FF90EF900895DC01F1
:10175000ED91FC911197309759F48FEF8093EC0045
:101760008093ED008093EE0081E083BF8895FDCFEC
:10177000208131812D933C93CF0108951F920F92C8
:101780000FB60F9211242F933F934F935F936F9354
:101790007F938F939F93EF93FF9380912601909176
:1017A000270101969093270180932601E0912C0157
:1017B000F0912D01309701F142815381648175814F
:1017C00086179707C9F4CA012091840030918500DB
:1017D000421B530B4130510529F4809184009091B4
:1017E000850001969093890080938800EFE6F0E0F1
:1017F00080818260808305C0EFE6F0E080818D7F8C
:101800008083FF91EF919F918F917F916F915F9175
:101810004F913F912F910F900FBE0F901F901895F1
:101820001F920F920FB60F921124CF92DF92EF9278
:10183000FF922F933F934F935F936F937F938F9379
:101840009F93AF93BF93EF93FF93C0902601D090E7
:1018500027012091840030918500B0990FC00D2C94
:10186000000CEE08FF08D601992788276901E12CB2
:10187000F12CC82AD92AEA2AFB2A15C02091840013
:10188000309185008FEFC81AD80A0D2C000CEE0895
:10189000FF08D601992788276901E12CF12CC82A75
:1018A000D92AEA2AFB2AE0912C01F0912D013097E8
:1018B00009F442C082819381A481B5818C199D096C
:1018C000AE09BF09181619061A061B06ECF18CE2C0
:1018D00091E00E94A70B6EE271E00E94210BE09163
:1018E0002C01F0912D01309739F182819381A481EF
:1018F000B5818C199D09AE09BF09181619061A067B
:101900001B062CF721C09C0140918400509185005A
:10191000841B950B019731F4209184003091850050
:101920002F5F3F4F3093890020938800EFE6F0E06F
:1019300080818260808305C0EFE6F0E080818D7F4A
:1019400080830E944E030CC082819381A481B58163
:1019500020912601309127012A173B0769F7D3CF41
:10196000FF91EF91BF91AF919F918F917F916F9177
:101970005F914F913F912F91FF90EF90DF90CF902B
:101980000F900FBE0F901F9018953F924F925F924D
:101990006F927F928F929F92AF92BF92CF92DF927F
:1019A000EF92FF920F931F93CF93DF932B013C0194
:1019B00049015A018FB78078382EF89488E191E078
:1019C0000E94A70BEC011B870A87FD86EC86DF8649
:1019D000CE86332061F0E0911201F0911301028074
:1019E000F381E02D82819381A481B58108C080912B
:1019F000280190912901A0912A01B0912B01480E54
:101A0000591E6A1E7B1E4A825B826C827D8218147C
:101A100019041A041B0444F00F2E88248A94982C6D
:101A2000A82CFFE7BF2EF02D840C951CA61CB71C1C
:101A30008E829F82A886B986809126019091270187
:101A40004091840050918500B0990EC0092E000C81
:101A5000AA0BBB0BDC019927882760E070E0842B80
:101A6000952BA62BB72B13C02091840030918500B5
:101A70000196092E000CAA0BBB0BDC0199278827C5
:101A8000A90160E070E0842B952BA62BB72B481A98
:101A9000590A6A0A7B0A1414150416041704ACF5D3
:101AA0006CE271E0CE010E94640BE0912C01F09198
:101AB0002D01309721F182819381A481B5812091FC
:101AC0002601309127012A173B07C9F49C01409158
:101AD000840050918500841B950B019731F420916F
:101AE0008400309185002F5F3F4F30938900209311
:101AF0008800EFE6F0E080818260808341C0EFE6FD
:101B0000F0E080818D7F80833BC06EE271E0CE018A
:101B10000E94210B3320B9F1809116019091170199
:101B2000009781F1E0911401F091150120912E01AF
:101B300030912F0102811381D90116964D915D914B
:101B40006D917C911997D80116960D911D912D914B
:101B50003C911997401B510B620B730B9AF4DC01FB
:101B60002D913C9111973093170120931601ED931D
:101B7000FC9390931501809314010E942E0302C0E0
:101B8000332009F07894CE01DF91CF911F910F910E
:101B9000FF90EF90DF90CF90BF90AF909F908F908D
:101BA0007F906F905F904F903F900895CF92DF921B
:101BB000EF92FF920F931F93CF93DF93EC017B0182
:101BC0006A011FB71078F894A881B981109761F164
:101BD0001496ED91FC911597309741F0A081B18159
:101BE0001496ED91FC9115973097C1F72091120151
:101BF000309113012A173B0721F0112309F43DC04E
:101C000007C0112309F43CC078948FEF9FEF52C0B6
:101C10008A819B810097D1F1FC011582148236C024
:101C2000789480E090E046C0809112019091130179
:101C300099838883112329F08A819B81019709F078
:101C40007894B601CE01F7010995F82E092F8FB7C8
:101C5000F894198218828A819B818230910538F02C
:101C60001B821A82FC01158214820E942E0311230A
:101C700051F078948F2D902F1DC08FEF9FEF1AC0D9
:101C80008FEF9FEF17C08F2D902F14C03B832A83B7
:101C9000F901D583C483CD010E942E03E091120186
:101CA000F091130182819381892B09F4B9CFF983D3
:101CB000E883C2CFDF91CF911F910F91FF90EF90FA
:101CC000DF90CF90089500911201109113018EE2E0
:101CD00091E00E94A70BEC01D80113969C938E9380
:101CE000129778944E855F856C857D858A859B8566
:101CF0000E94D60D8FB7F894809118019091190128
:101D000099838883D0931901C0931801E09114013D
:101D1000F091150100811181E8012A813B81A09198
:101D20002E01B0912F011097C1F02115310559F204
:101D300016968D919D910D90BC91A02DE9014E813B
:101D40005F8168857985841B950BA60BB70B1816E8
:101D500019061A061B060CF0B6CF10931501009356
:101D60001401809116019091170191838083F09363
:101D70001701E0931601A0911401B091150114967A
:101D8000ED91FC911597309741F0A081B1811496A7
:101D9000ED91FC9115973097C1F7CD010E942E036C
:101DA00092CF8C017B016A018FB7F8940E94C30225
:101DB0007894E114F10441F020E030E0A90160E002
:101DC00070E0CB010E94C50C8FB7F8940E944E03BF
:101DD000789481E083BF8895FDCF21E030E0FC015D
:101DE00035832483089521E030E0FC013783268386
:101DF0000895FC01158214820895FC011782168251
:101E00000895052E97FB1EF400940E94180F57FDAD
:101E100007D00E94260F07FC03D04EF40C94180F35
:101E200050954095309521953F4F4F4F5F4F089506
:101E300090958095709561957F4F8F4F9F4F089536
:101E4000EE0FFF1F0590F491E02D0994A1E21A2EE8
:101E5000AA1BBB1BFD010DC0AA1FBB1FEE1FFF1F4E
:101E6000A217B307E407F50720F0A21BB30BE40B9E
:101E7000F50B661F771F881F991F1A9469F76095E5
:101E80007095809590959B01AC01BD01CF0108959F
:101E9000DC012D923D924D925D926D927D928D92DC
:101EA0009D92AD92BD92CD92DD92ED92FD920D93F9
:101EB0001D93CD93DD93FF91EF918DB78D938EB7E9
:101EC0008D938FB78D93ED93FD9388279927099470
:101ED000DC01CB0181309105811D2D903D904D900D
:101EE0005D906D907D908D909D90AD90BD90CD90CA
:101EF000DD90ED90FD900D911D91CD91DD91ED91D5
:101F0000FD910D90F894FEBF0FBEEDBFED91FD91D8
:061F10000994F894FFCFD4
:101F1600000000001A011E01000000000000000081
:0A1F26000000EC01EC015401090277
:00000001FF
