:100000000C9438000C9441060C94AD060C9419071E
:100010000C9485070C94F1070C9455000C94C80EB1
:100020000C9455000C94760E0C945D080C94C90841
:100030000C9435090C94A1090C940D0A0C94790ABE
:100040000C94E50A0C94510B0C94BD0B0C94290CE8
:100050000C94950C0C94010D0C946D0DAC00B90032
:10006000C400D100DE00EB00FA00090114012301F5
:1000700011241FBECFEFD4E0DEBFCDBF11E0A0E062
:10008000B1E0E4E2F5E202C005900D92A032B107C2
:10009000D9F724E0A0E2B1E001C01D92AD37B2076C
:1000A000E1F70E9456050C9490120C94000060FD3C
:1000B00019C0FB01FF230CF43196F595E795E45147
:1000C000FF4FA82FB92F9F012C5E3F4F8081807F6B
:1000D00080839C911296892B808335962E173F073B
:1000E000A9F7089561507109FB01FF230CF43196C3
:1000F000F595E795E451FF4FA82FB92F9F012C5E8E
:100100003F4F80818F7080838D919C911197829554
:100110009295907F9827807F98278D939D939081CB
:10012000892B808335962E173F0759F70895CF9373
:10013000DF93CDB7DEB728970FB6F894DEBF0FBEBA
:10014000CDBF90E0FC01F097EA30F10508F08AC0DD
:10015000E25DFF4F0C94271281E090E09A8389833F
:1001600025E030E03C832B833E832D8398878F836B
:1001700083C01A82198281E090E09C838B839E83E6
:100180008D8318861F8278C081E090E09A838983EE
:100190009C838B832EE030E03E832D8398878F8372
:1001A0006BC081E090E09A8389839C838B832BE0F2
:1001B00030E03E832D8398878F835EC01A82198238
:1001C00085E090E09C838B838BE090E09E838D8321
:1001D00018861F8251C081E090E09A83898324E0D1
:1001E00030E03C832B832BE030E03E832D839887E7
:1001F0008F8342C081E090E09A83898324E030E0DD
:100200003C832B832FE030E03E832D8398878F83C0
:1002100033C081E090E09A8389839C838B839E83A3
:100220008D8318861F8228C081E090E09A8389839D
:1002300025E030E03C832B832FE030E03E832D83AC
:1002400098878F8319C081E090E09A83898325E0A5
:1002500030E03C832B832BE030E03E832D83988776
:100260008F830AC08FE090E09A8389839C838B837D
:100270009E838D8398878F83CE0101960E945700BD
:1002800028960FB6F894DEBF0FBECDBFDF91CF9199
:1002900008958F929F92AF92BF92CF92DF92EF928A
:1002A000FF92CF93DF934B015C01EA0124E630E03B
:1002B00040E050E00E9408120F2EFAE0CF2ED12C21
:1002C000E12CF12CF02DA70196010E940812BE012D
:1002D00080E3820F0E9497002196C501B401A70117
:1002E00096010E940812862FBE01805D0E94970031
:1002F000DF91CF91FF90EF90DF90CF90BF90AF90C4
:100300009F908F900895072E000C880B990B42E068
:1003100050E00E9449010895072E000C880B990BAC
:1003200040E050E00E9449010895072E000C880B20
:10033000990B44E050E00E94490108950F931F93E8
:10034000CF93DF938C01C091C600D0E0C130D105BE
:1003500029F4FC01848195810E947003CE01969559
:100360008795019729F4F801848195810E94EE0315
:10037000CE019695879596958795019729F4F80172
:10038000848195810E94AF03D695C795D695C79570
:10039000D695C795219729F4F801848195810E940B
:1003A0007F04DF91CF911F910F910895CF93DF9339
:1003B000EC018C859D8501979D878C87892B09F0A1
:1003C00026C188899989029709F08FC08A859B8503
:1003D000892B09F057C088859985181619064CF5A0
:1003E00041E050E062EF71E18E819F810E948E10AA
:1003F00041E050E06FEB71E18E819F810E948E1091
:1004000040E050E060ED71E18E819F810E948E108E
:1004100040E050E061EE71E18E819F810E948E107C
:1004200040E050E063E072E18E819F810E948E1077
:100430005CC040E050E062EF71E18E819F810E94DC
:100440008E1041E050E06FEB71E18E819F810E9440
:100450008E1041E050E060ED71E18E819F810E943D
:100460008E1040E050E061EE71E18E819F810E942C
:100470008E1040E050E063E072E18E819F810E9427
:100480008E1033C08E859F8504970CF4C0C088857C
:100490009985181619060CF0BAC041E050E062EFD9
:1004A00071E18E819F810E948E1041E050E06FEBE0
:1004B00071E18E819F810E948E1040E050E060EDDE
:1004C00071E18E819F810E948E1040E050E061EECC
:1004D00071E18E819F810E948E1040E050E063E0C8
:1004E00072E18E819F810E948E108889998901977F
:1004F00009F08DC088859985892B09F057C08A85B8
:100500009B85181619064CF540E050E062EF71E14A
:100510008E819F810E948E1040E050E06FEB71E170
:100520008E819F810E948E1041E050E060ED71E16C
:100530008E819F810E948E1041E050E061EE71E15A
:100540008E819F810E948E1040E050E063E072E156
:100550008E819F810E948E105AC040E050E062EF71
:1005600071E18E819F810E948E1041E050E06FEB1F
:1005700071E18E819F810E948E1041E050E060ED1C
:1005800071E18E819F810E948E1040E050E061EE0B
:1005900071E18E819F810E948E1040E050E063E007
:1005A00072E18E819F810E948E1031C08E859F8561
:1005B00004976CF18A859B851816190644F540E06E
:1005C00050E062EF71E18E819F810E948E1040E0C9
:1005D00050E06FEB71E18E819F810E948E1041E0AF
:1005E00050E060ED71E18E819F810E948E1041E0AC
:1005F00050E061EE71E18E819F810E948E1040E09B
:1006000050E063E072E18E819F810E948E104C85E4
:100610005D8563E871E08C819D810E948E10DF9181
:10062000CF910895CF93DF93EC0188899989823027
:10063000910549F540E050E062EF71E18E819F81C4
:100640000E948E1040E050E06FEB71E18E819F813F
:100650000E948E1041E050E060ED71E18E819F813B
:100660000E948E1041E050E061EE71E18E819F8129
:100670000E948E1040E050E063E072E18E819F8125
:100680000E948E102AC0019741F541E050E062EFD0
:1006900071E18E819F810E948E1041E050E06FEBEE
:1006A00071E18E819F810E948E1040E050E060EDEC
:1006B00071E18E819F810E948E1040E050E061EEDA
:1006C00071E18E819F810E948E1040E050E063E0D6
:1006D00072E18E819F810E948E10DF91CF910895EB
:1006E000CF93DF93EC018885998501969987888758
:1006F0008C859D85892B41F541E050E062EF71E1E9
:100700008E819F810E948E1041E050E06FEB71E17D
:100710008E819F810E948E1040E050E060ED71E17B
:100720008E819F810E948E1040E050E061EE71E169
:100730008E819F810E948E1040E050E063E072E164
:100740008E819F810E948E10488559856CE871E0EA
:100750008C819D810E948E10DF91CF910895CF935F
:10076000DF93EC018A859B8501969B878A878C8520
:100770009D85892B41F540E050E062EF71E18E816B
:100780009F810E948E1040E050E06FEB71E18E81FE
:100790009F810E948E1041E050E060ED71E18E81FA
:1007A0009F810E948E1041E050E061EE71E18E81E8
:1007B0009F810E948E1040E050E063E072E18E81E4
:1007C0009F810E948E104A855B8565E971E08C816E
:1007D0009D810E948E10DF91CF910895CF92DF927C
:1007E000EF92FF920F931F93CF93DF93EC0140E0C2
:1007F00050E06FEB71E18E819F810E948E1041E08D
:1008000050E061EE71E18E819F810E948E1040E088
:1008100050E060ED71E18E819F810E948E1041E079
:1008200050E062EF71E18E819F810E948E1040E066
:1008300050E063E072E18E819F810E948E10888576
:1008400099850197998788878C859D8501969D87D5
:100850008C8788899989019731F48E859F850196C7
:100860009F878E8702C01F861E8681E090E0998B4D
:10087000888B8E859F8504972CF08A859B8518161A
:10088000190694F0C12CD12C0F2EF2E1EF2EF3E0DB
:10089000FF2EF02D8E0120E030E0A90162E17AE721
:1008A00080E090E00E947D0FC12CD12C0F2EF6ED40
:1008B000EF2EF1E0FF2EF02D8E0120E030E0A901B7
:1008C0006AE572E682E090E00E947D0F4C855D85CE
:1008D00063E871E08C819D810E948E104885598566
:1008E0006CE871E08C819D810E948E10DF91CF9128
:1008F0001F910F91FF90EF90DF90CF900895CF92CE
:10090000DF92EF92FF920F931F93CF93DF93EC014F
:1009100040E050E06FEB71E18E819F810E948E106C
:1009200041E050E061EE71E18E819F810E948E1066
:1009300040E050E060ED71E18E819F810E948E1059
:1009400041E050E062EF71E18E819F810E948E1044
:1009500040E050E063E072E18E819F810E948E1042
:100960008A859B8501979B878A878C859D850196C3
:100970009D878C8788899989029731F48E859F8518
:1009800001969F878E8702C01F861E8682E090E0B8
:10099000998B888B8E859F8504972CF08885998507
:1009A0001816190694F0C12CD12C0F2EF2E1EF2E5F
:1009B000F3E0FF2EF02D8E0120E030E0A90162E18E
:1009C0007AE780E090E00E947D0FC12CD12C0F2EA1
:1009D000F6EDEF2EF1E0FF2EF02D8E0120E030E05D
:1009E000A9016AE572E682E090E00E947D0F4C85E5
:1009F0005D8563E871E08C819D810E948E104A853F
:100A00005B8565E971E08C819D810E948E10DF918C
:100A1000CF911F910F91FF90EF90DF90CF900895AD
:100A2000CF93DF93EC014C855D8563E871E08C81A9
:100A30009D810E948E10488559856CE871E08C81FB
:100A40009D810E948E104885598565E971E08C81F1
:100A50009D810E948E1040E050E062EF71E18E8136
:100A60009F810E948E1041E050E06FEB71E18E811A
:100A70009F810E948E1041E050E060ED71E18E8117
:100A80009F810E948E1040E050E061EE71E18E8106
:100A90009F810E948E1040E050E063E072E18E8101
:100AA0009F810E948E10DF91CF91089587EB8093F4
:100AB000E50087E08093E6008FE08093E70080EC1C
:100AC0008093E40086E08093C20088E98093C100AF
:100AD00083E38093C40048E06EE971E080E091E038
:100AE0000E94891140E050E060E175E086E091E00D
:100AF0000E94A3110895CF93DF9300D000D0CDB70B
:100B0000DEB78DE192E02DEF32E0FC01709791832A
:100B10008083409682179307C1F71092EE021092DD
:100B2000ED02E8E5F1E085E791E09183808382E9D9
:100B300091E0968F858FAFEAB1E0B3AFA2AF1D927F
:100B40001C92FA83E983E9E5F3E0FC83EB83898176
:100B50009A8106960E944F128B819C81E981FA81CD
:100B6000978B868B918F808F8BE191E1948F838F10
:100B7000158214827D96FA83E983EB81FC81E05A29
:100B8000FF4FFC83EB8389819A818C5C9140F9F65D
:100B9000E0EFF1E01182108215821482138212823A
:100BA000E1E6F0E080E880831082109285001092E8
:100BB000840084E08093810081E080936F000F9037
:100BC0000F900F900F90DF91CF910895CF93DF9307
:100BD00000D0CDB7DEB79A838983809118019091B8
:100BE000190106960E944F12892B59F489819A8126
:100BF000909319018093180161E070E006960E94BD
:100C00006F120F900F90DF91CF9108950F931F9364
:100C1000CF93DF93E0913201F0913301309761F18E
:100C200080911C0190911D01009731F1C0911A0132
:100C3000D0911B01AA81BB81109779F04681578121
:100C40006085718516960D911D912D913C91199796
:100C5000401B510B620B730B7AF4FC012081318134
:100C600030931D0120931C01D183C08390931B01FD
:100C700080931A010E94E605DF91CF911F910F9199
:100C800008951F920F920FB60F9211242F933F9346
:100C90004F935F936F937F938F939F93AF93BF9384
:100CA000EF93FF9320912A0130912B014091840012
:100CB00050918500C901032E000CAA0BBB0BDC016F
:100CC0009927882760E070E0842B952BA62BB72B03
:100CD00080932C0190932D01A0932E01B0932F01AE
:100CE000B09B1BC04091840050918500C9010196C2
:100CF000092E000CAA0BBB0BDC019927882760E0AA
:100D000070E0842B952BA62BB72B80932C0190930E
:100D10002D01A0932E01B0932F01E091CC01F09111
:100D2000CD01309739F060E070E08091340190910E
:100D3000350109950E940606FF91EF91BF91AF9191
:100D40009F918F917F916F915F914F913F912F91E3
:100D50000F900FBE0F901F9018951F920F920FB615
:100D60000F9211242F933F934F935F936F937F9331
:100D70008F939F93AF93BF93EF93FF9320912A019B
:100D800030912B014091840050918500C901032EC0
:100D9000000CAA0BBB0BDC019927882760E070E0F0
:100DA000842B952BA62BB72B80932C0190932D0190
:100DB000A0932E01B0932F01B09B1BC040918400E3
:100DC00050918500C9010196092E000CAA0BBB0B9E
:100DD000DC019927882760E070E0842B952BA62BF7
:100DE000B72B80932C0190932D01A0932E01B093EB
:100DF0002F01E091CE01F091CF01309739F061E001
:100E000070E0809136019091370109950E940606A5
:100E1000FF91EF91BF91AF919F918F917F916F91D2
:100E20005F914F913F912F910F900FBE0F901F90A8
:100E300018951F920F920FB60F9211242F933F9384
:100E40004F935F936F937F938F939F93AF93BF93D2
:100E5000EF93FF9320912A0130912B014091840060
:100E600050918500C901032E000CAA0BBB0BDC01BD
:100E70009927882760E070E0842B952BA62BB72B51
:100E800080932C0190932D01A0932E01B0932F01FC
:100E9000B09B1BC04091840050918500C901019610
:100EA000092E000CAA0BBB0BDC019927882760E0F8
:100EB00070E0842B952BA62BB72B80932C0190935D
:100EC0002D01A0932E01B0932F01E091D001F0915C
:100ED000D101309739F062E070E080913801909153
:100EE000390109950E940606FF91EF91BF91AF91DC
:100EF0009F918F917F916F915F914F913F912F9132
:100F00000F900FBE0F901F9018951F920F920FB663
:100F10000F9211242F933F934F935F936F937F937F
:100F20008F939F93AF93BF93EF93FF9320912A01E9
:100F300030912B014091840050918500C901032E0E
:100F4000000CAA0BBB0BDC019927882760E070E03E
:100F5000842B952BA62BB72B80932C0190932D01DE
:100F6000A0932E01B0932F01B09B1BC04091840031
:100F700050918500C9010196092E000CAA0BBB0BEC
:100F8000DC019927882760E070E0842B952BA62B45
:100F9000B72B80932C0190932D01A0932E01B09339
:100FA0002F01E091D201F091D301309739F063E045
:100FB00070E080913A0190913B0109950E940606EC
:100FC000FF91EF91BF91AF919F918F917F916F9121
:100FD0005F914F913F912F910F900FBE0F901F90F7
:100FE00018951F920F920FB60F9211242F933F93D3
:100FF0004F935F936F937F938F939F93AF93BF9321
:10100000EF93FF9320912A0130912B0140918400AE
:1010100050918500C901032E000CAA0BBB0BDC010B
:101020009927882760E070E0842B952BA62BB72B9F
:1010300080932C0190932D01A0932E01B0932F014A
:10104000B09B1BC04091840050918500C90101965E
:10105000092E000CAA0BBB0BDC019927882760E046
:1010600070E0842B952BA62BB72B80932C019093AB
:101070002D01A0932E01B0932F01E091D401F091A6
:10108000D501309739F064E070E080913C01909197
:101090003D0109950E940606FF91EF91BF91AF9126
:1010A0009F918F917F916F915F914F913F912F9180
:1010B0000F900FBE0F901F9018951F920F920FB6B2
:1010C0000F9211242F933F934F935F936F937F93CE
:1010D0008F939F93AF93BF93EF93FF9320912A0138
:1010E00030912B014091840050918500C901032E5D
:1010F000000CAA0BBB0BDC019927882760E070E08D
:10110000842B952BA62BB72B80932C0190932D012C
:10111000A0932E01B0932F01B09B1BC0409184007F
:1011200050918500C9010196092E000CAA0BBB0B3A
:10113000DC019927882760E070E0842B952BA62B93
:10114000B72B80932C0190932D01A0932E01B09387
:101150002F01E091D601F091D701309739F065E089
:1011600070E080913E0190913F0109950E94060632
:10117000FF91EF91BF91AF919F918F917F916F916F
:101180005F914F913F912F910F900FBE0F901F9045
:1011900018951F920F920FB60F9211242F933F9321
:1011A0004F935F936F937F938F939F93AF93BF936F
:1011B000EF93FF9320912A0130912B0140918400FD
:1011C00050918500C901032E000CAA0BBB0BDC015A
:1011D0009927882760E070E0842B952BA62BB72BEE
:1011E00080932C0190932D01A0932E01B0932F0199
:1011F000B09B1BC04091840050918500C9010196AD
:10120000092E000CAA0BBB0BDC019927882760E094
:1012100070E0842B952BA62BB72B80932C019093F9
:101220002D01A0932E01B0932F01E091D801F091F0
:10123000D901309739F066E070E0809140019091DB
:10124000410109950E940606FF91EF91BF91AF9170
:101250009F918F917F916F915F914F913F912F91CE
:101260000F900FBE0F901F9018951F920F920FB600
:101270000F9211242F933F934F935F936F937F931C
:101280008F939F93AF93BF93EF93FF9320912A0186
:1012900030912B014091840050918500C901032EAB
:1012A000000CAA0BBB0BDC019927882760E070E0DB
:1012B000842B952BA62BB72B80932C0190932D017B
:1012C000A0932E01B0932F01B09B1BC040918400CE
:1012D00050918500C9010196092E000CAA0BBB0B89
:1012E000DC019927882760E070E0842B952BA62BE2
:1012F000B72B80932C0190932D01A0932E01B093D6
:101300002F01E091DA01F091DB01309739F067E0CD
:1013100070E0809142019091430109950E94060678
:10132000FF91EF91BF91AF919F918F917F916F91BD
:101330005F914F913F912F910F900FBE0F901F9093
:1013400018951F920F920FB60F9211242F933F936F
:101350004F935F936F937F938F939F93AF93BF93BD
:10136000EF93FF9320912A0130912B01409184004B
:1013700050918500C901032E000CAA0BBB0BDC01A8
:101380009927882760E070E0842B952BA62BB72B3C
:1013900080932C0190932D01A0932E01B0932F01E7
:1013A000B09B1BC04091840050918500C9010196FB
:1013B000092E000CAA0BBB0BDC019927882760E0E3
:1013C00070E0842B952BA62BB72B80932C01909348
:1013D0002D01A0932E01B0932F01E091DC01F0913B
:1013E000DD01309739F068E070E080914401909120
:1013F000450109950E940606FF91EF91BF91AF91BB
:101400009F918F917F916F915F914F913F912F911C
:101410000F900FBE0F901F9018951F920F920FB64E
:101420000F9211242F933F934F935F936F937F936A
:101430008F939F93AF93BF93EF93FF9320912A01D4
:1014400030912B014091840050918500C901032EF9
:10145000000CAA0BBB0BDC019927882760E070E029
:10146000842B952BA62BB72B80932C0190932D01C9
:10147000A0932E01B0932F01B09B1BC0409184001C
:1014800050918500C9010196092E000CAA0BBB0BD7
:10149000DC019927882760E070E0842B952BA62B30
:1014A000B72B80932C0190932D01A0932E01B09324
:1014B0002F01E091DE01F091DF01309739F069E012
:1014C00070E0809146019091470109950E940606BF
:1014D000FF91EF91BF91AF919F918F917F916F910C
:1014E0005F914F913F912F910F900FBE0F901F90E2
:1014F00018951F920F920FB60F9211242F933F93BE
:101500004F935F936F937F938F939F93AF93BF930B
:10151000EF93FF9320912A0130912B014091840099
:1015200050918500C901032E000CAA0BBB0BDC01F6
:101530009927882760E070E0842B952BA62BB72B8A
:1015400080932C0190932D01A0932E01B0932F0135
:10155000B09B1BC04091840050918500C901019649
:10156000092E000CAA0BBB0BDC019927882760E031
:1015700070E0842B952BA62BB72B80932C01909396
:101580002D01A0932E01B0932F01E091E001F09185
:10159000E101309739F06AE070E080914801909164
:1015A000490109950E940606FF91EF91BF91AF9105
:1015B0009F918F917F916F915F914F913F912F916B
:1015C0000F900FBE0F901F9018951F920F920FB69D
:1015D0000F9211242F933F934F935F936F937F93B9
:1015E0008F939F93AF93BF93EF93FF9320912A0123
:1015F00030912B014091840050918500C901032E48
:10160000000CAA0BBB0BDC019927882760E070E077
:10161000842B952BA62BB72B80932C0190932D0117
:10162000A0932E01B0932F01B09B1BC0409184006A
:1016300050918500C9010196092E000CAA0BBB0B25
:10164000DC019927882760E070E0842B952BA62B7E
:10165000B72B80932C0190932D01A0932E01B09372
:101660002F01E091E201F091E301309739F06BE056
:1016700070E080914A0190914B0109950E94060605
:10168000FF91EF91BF91AF919F918F917F916F915A
:101690005F914F913F912F910F900FBE0F901F9030
:1016A00018951F920F920FB60F9211242F933F930C
:1016B0004F935F936F937F938F939F93AF93BF935A
:1016C000EF93FF9320912A0130912B0140918400E8
:1016D00050918500C901032E000CAA0BBB0BDC0145
:1016E0009927882760E070E0842B952BA62BB72BD9
:1016F00080932C0190932D01A0932E01B0932F0184
:10170000B09B1BC04091840050918500C901019697
:10171000092E000CAA0BBB0BDC019927882760E07F
:1017200070E0842B952BA62BB72B80932C019093E4
:101730002D01A0932E01B0932F01E091E401F091CF
:10174000E501309739F06CE070E080914C019091A8
:101750004D0109950E940606FF91EF91BF91AF914F
:101760009F918F917F916F915F914F913F912F91B9
:101770000F900FBE0F901F9018951F920F920FB6EB
:101780000F9211242F933F934F935F936F937F9307
:101790008F939F93AF93BF93EF93FF9320912A0171
:1017A00030912B014091840050918500C901032E96
:1017B000000CAA0BBB0BDC019927882760E070E0C6
:1017C000842B952BA62BB72B80932C0190932D0166
:1017D000A0932E01B0932F01B09B1BC040918400B9
:1017E00050918500C9010196092E000CAA0BBB0B74
:1017F000DC019927882760E070E0842B952BA62BCD
:10180000B72B80932C0190932D01A0932E01B093C0
:101810002F01E091E601F091E701309739F06DE09A
:1018200070E080914E0190914F0109950E9406064B
:10183000FF91EF91BF91AF919F918F917F916F91A8
:101840005F914F913F912F910F900FBE0F901F907E
:1018500018951F920F920FB60F9211242F933F935A
:101860004F935F936F937F938F939F93AF93BF93A8
:10187000EF93FF9320912A0130912B014091840036
:1018800050918500C901032E000CAA0BBB0BDC0193
:101890009927882760E070E0842B952BA62BB72B27
:1018A00080932C0190932D01A0932E01B0932F01D2
:1018B000B09B1BC04091840050918500C9010196E6
:1018C000092E000CAA0BBB0BDC019927882760E0CE
:1018D00070E0842B952BA62BB72B80932C01909333
:1018E0002D01A0932E01B0932F01E091E801F0911A
:1018F000E901309739F06EE070E0809150019091ED
:10190000510109950E940606FF91EF91BF91AF9199
:101910009F918F917F916F915F914F913F912F9107
:101920000F900FBE0F901F9018951F920F920FB639
:101930000F9211242F933F934F935F936F937F9355
:101940008F939F93AF93BF93EF93FF9320912A01BF
:1019500030912B014091840050918500C901032EE4
:10196000000CAA0BBB0BDC019927882760E070E014
:10197000842B952BA62BB72B80932C0190932D01B4
:10198000A0932E01B0932F01B09B1BC04091840007
:1019900050918500C9010196092E000CAA0BBB0BC2
:1019A000DC019927882760E070E0842B952BA62B1B
:1019B000B72B80932C0190932D01A0932E01B0930F
:1019C0002F01E091EA01F091EB01309739F06FE0DF
:1019D00070E0809152019091530109950E94060692
:1019E000FF91EF91BF91AF919F918F917F916F91F7
:1019F0005F914F913F912F910F900FBE0F901F90CD
:101A000018951F920F920FB60F9211242F933F93A8
:101A10004F935F936F937F938F939F93AF93BF93F6
:101A2000EF93FF9320912A0130912B014091840084
:101A300050918500C901032E000CAA0BBB0BDC01E1
:101A40009927882760E070E0842B952BA62BB72B75
:101A500080932C0190932D01A0932E01B0932F0120
:101A6000B09B1BC04091840050918500C901019634
:101A7000092E000CAA0BBB0BDC019927882760E01C
:101A800070E0842B952BA62BB72B80932C01909381
:101A90002D01A0932E01B0932F01E091EC01F09164
:101AA000ED01309739F060E170E080915401909140
:101AB000550109950E940606FF91EF91BF91AF91E4
:101AC0009F918F917F916F915F914F913F912F9156
:101AD0000F900FBE0F901F9018951F920F920FB688
:101AE0000F9211242F933F934F935F936F937F93A4
:101AF0008F939F93AF93BF93EF93FF9320912A010E
:101B000030912B014091840050918500C901032E32
:101B1000000CAA0BBB0BDC019927882760E070E062
:101B2000842B952BA62BB72B80932C0190932D0102
:101B3000A0932E01B0932F01B09B1BC04091840055
:101B400050918500C9010196092E000CAA0BBB0B10
:101B5000DC019927882760E070E0842B952BA62B69
:101B6000B72B80932C0190932D01A0932E01B0935D
:101B70002F01E091EE01F091EF01309739F061E132
:101B800070E0809156019091570109950E940606D8
:101B9000FF91EF91BF91AF919F918F917F916F9145
:101BA0005F914F913F912F910F900FBE0F901F901B
:101BB0001895EF92FF920F931F93CF93DF937B01C2
:101BC000EB01A881B981109761F1FC0106811781B1
:101BD0002085318516964D915D916D917C91199777
:101BE000041715072607370714F41BC0DF01ED9112
:101BF000FC911197309749F0468157816085718536
:101C000004171507260737078CF7EC01F983E883DB
:101C1000109721F4F7019183808307C08D939C93E3
:101C200004C0EC01B983A883F5CFDF91CF911F9158
:101C30000F91FF90EF900895EF92FF920F931F93F3
:101C4000CF93DF937B01EB01A881B981109761F1FC
:101C5000FC01028113812481358112964D915D91A1
:101C60006D917C911597041715072607370714F413
:101C70001BC0DF01ED91FC911197309749F0428133
:101C800053816481758104171507260737078CF780
:101C9000EC01F983E883109721F4F70191838083A5
:101CA00007C08D939C9304C0EC01B983A883F5CF42
:101CB000DF91CF911F910F91FF90EF900895DC017C
:101CC000ED91FC911197309759F48FEF8093EC00D0
:101CD0008093ED008093EE0081E083BF8895FDCF77
:101CE000208131812D933C93CF0108951F920F9253
:101CF0000FB60F9211242F933F934F935F936F93DF
:101D00007F938F939F93EF93FF9380912A019091FC
:101D10002B01019690932B0180932A01E0913001D1
:101D2000F0913101309701F14281538164817581D5
:101D300086179707C9F4CA01209184003091850065
:101D4000421B530B4130510529F48091840090913E
:101D5000850001969093890080938800EFE6F0E07B
:101D600080818260808305C0EFE6F0E080818D7F16
:101D70008083FF91EF919F918F917F916F915F9100
:101D80004F913F912F910F900FBE0F901F9018957C
:101D90001F920F920FB60F921124CF92DF92EF9203
:101DA000FF922F933F934F935F936F937F938F9304
:101DB0009F93AF93BF93EF93FF93C0902A01D0906E
:101DC0002B012091840030918500B0990FC00D2C1B
:101DD000000CEE08FF08D601992788276901E12C3D
:101DE000F12CC82AD92AEA2AFB2A15C0209184009E
:101DF000309185008FEFC81AD80A0D2C000CEE0820
:101E0000FF08D601992788276901E12CF12CC82AFF
:101E1000D92AEA2AFB2AE0913001F091310130976A
:101E200009F442C082819381A481B5818C199D09F6
:101E3000AE09BF09181619061A061B06ECF180E355
:101E400091E00E945F0E62E371E00E94D90DE09183
:101E50003001F0913101309739F182819381A48171
:101E6000B5818C199D09AE09BF09181619061A0605
:101E70001B062CF721C09C014091840050918500E5
:101E8000841B950B019731F42091840030918500DB
:101E90002F5F3F4F3093890020938800EFE6F0E0FA
:101EA00080818260808305C0EFE6F0E080818D7FD5
:101EB00080830E9406060CC082819381A481B58133
:101EC00020912A0130912B012A173B0769F7D3CFC4
:101ED000FF91EF91BF91AF919F918F917F916F9102
:101EE0005F914F913F912F91FF90EF90DF90CF90B6
:101EF0000F900FBE0F901F9018953F924F925F92D8
:101F00006F927F928F929F92AF92BF92CF92DF9209
:101F1000EF92FF920F931F93CF93DF932B013C011E
:101F200049015A018FB78078382EF8948EE191E0FC
:101F30000E945F0EEC011B870A87FD86EC86DF8618
:101F4000CE86332061F0E0911801F09119010280F2
:101F5000F381E02D82819381A481B58108C08091B5
:101F60002C0190912D01A0912E01B0912F01480ECE
:101F7000591E6A1E7B1E4A825B826C827D82181407
:101F800019041A041B0444F00F2E88248A94982CF8
:101F9000A82CFFE7BF2EF02D840C951CA61CB71CA7
:101FA0008E829F82A886B98680912A0190912B010A
:101FB0004091840050918500B0990EC0092E000C0C
:101FC000AA0BBB0BDC019927882760E070E0842B0B
:101FD000952BA62BB72B13C0209184003091850040
:101FE0000196092E000CAA0BBB0BDC019927882750
:101FF000A90160E070E0842B952BA62BB72B481A23
:10200000590A6A0A7B0A1414150416041704ACF55D
:1020100060E371E0CE010E941C0EE0913001F0916E
:102020003101309721F182819381A481B581209182
:102030002A0130912B012A173B07C9F49C014091DA
:10204000840050918500841B950B019731F42091F9
:102050008400309185002F5F3F4F3093890020939B
:102060008800EFE6F0E080818260808341C0EFE687
:10207000F0E080818D7F80833BC062E371E0CE0120
:102080000E94D90D3320B9F180911C0190911D015E
:10209000009781F1E0911A01F0911B01209132012A
:1020A0003091330102811381D90116964D915D91D2
:1020B0006D917C911997D80116960D911D912D91D6
:1020C0003C911997401B510B620B730B9AF4DC0186
:1020D0002D913C91119730931D0120931C01ED939C
:1020E000FC9390931B0180931A010E94E60502C0A5
:1020F000332009F07894CE01DF91CF911F910F9199
:10210000FF90EF90DF90CF90BF90AF909F908F9017
:102110007F906F905F904F903F900895CF92DF92A5
:10212000EF92FF920F931F93CF93DF93EC017B010C
:102130006A011FB71078F894A881B981109761F1EE
:102140001496ED91FC911597309741F0A081B181E3
:102150001496ED91FC9115973097C1F720911801D5
:10216000309119012A173B0721F0112309F43DC0D2
:1021700007C0112309F43CC078948FEF9FEF52C041
:102180008A819B810097D1F1FC011582148236C0AF
:10219000789480E090E046C08091180190911901F8
:1021A00099838883112329F08A819B81019709F003
:1021B0007894B601CE01F7010995F82E092F8FB753
:1021C000F894198218828A819B818230910538F0B7
:1021D0001B821A82FC01158214820E94E6051123DB
:1021E00051F078948F2D902F1DC08FEF9FEF1AC064
:1021F0008FEF9FEF17C08F2D902F14C03B832A8342
:10220000F901D583C483CD010E94E605E091180150
:10221000F091190182819381892B09F4B9CFF98357
:10222000E883C2CFDF91CF911F910F91FF90EF9084
:10223000DF90CF900895009118011091190182E369
:1022400091E00E945F0EEC01D80113969C938E934F
:10225000129778944E855F856C857D858A859B85F0
:102260000E948E108FB7F89480911E0190911F01EB
:1022700099838883D0931F01C0931E01E0911A01B6
:10228000F0911B0100811181E8012A813B81A0911D
:102290003201B09133011097C1F02115310559F287
:1022A00016968D919D910D90BC91A02DE9014E81C6
:1022B0005F8168857985841B950BA60BB70B181673
:1022C00019061A061B060CF0B6CF10931B010093DB
:1022D0001A0180911C0190911D0191838083F093DC
:1022E0001D01E0931C01A0911A01B0911B011496ED
:1022F000ED91FC911597309741F0A081B181149632
:10230000ED91FC9115973097C1F7CD010E94E6053C
:1023100092CF4231B8F42FB7F89450E0440F551FD4
:10232000FA01EC5CFE4F91838083FA01E453FE4F87
:102330007183608341E050E0FC0153834283222398
:102340000CF4789408958C017B016A018FB7F8949E
:102350000E947B057894E114F10441F020E030E024
:10236000A90160E070E0CB010E947D0F8FB7F89467
:102370000E940606789481E083BF8895FDCF613086
:10238000710539F4FC012481358121603583248372
:102390000895FC01248135812E7F3583248308959F
:1023A0006130710539F4FC01248135812460358365
:1023B00024830895FC01248135812B7F3583248378
:1023C00008956130710539F4FC0124813581226062
:1023D000358324830895FC01248135812D7F358345
:1023E000248308956130710539F4FC01248135811D
:1023F0002860358324830895FC0124813581277F5B
:10240000358324830895FC0184818093C600089558
:10241000052E97FB1EF400940E941F1257FD07D053
:102420000E942D1207FC03D04EF40C941F125095FD
:102430004095309521953F4F4F4F5F4F08959095B0
:102440008095709561957F4F8F4F9F4F0895EE0F48
:10245000FF1F0590F491E02D0994A1E21A2EAA1B0A
:10246000BB1BFD010DC0AA1FBB1FEE1FFF1FA21744
:10247000B307E407F50720F0A21BB30BE40BF50B41
:10248000661F771F881F991F1A9469F760957095CA
:10249000809590959B01AC01BD01CF010895DC01B1
:1024A0002D923D924D925D926D927D928D929D9274
:1024B000AD92BD92CD92DD92ED92FD920D931D9362
:1024C000CD93DD93FF91EF918DB78D938EB78D9363
:1024D0008FB78D93ED93FD93882799270994DC019D
:1024E000CB0181309105811D2D903D904D905D90E7
:1024F0006D907D908D909D90AD90BD90CD90DD9034
:10250000ED90FD900D911D91CD91DD91ED91FD919D
:102510000D90F894FEBF0FBEEDBFED91FD910994B3
:04252000F894FFCF5D
:10252400000000000601000000002001240100005A
:102534000000000000000000F001F00158010D024D
:00000001FF
