S00D00006C616262352E7372656351
S11300000C9438000C94CD020C9439030C94A50381
S11300100C9411040C947D040C9455000C94540B12
S11300200C9455000C94020B0C94E9040C945505A3
S11300300C94C1050C942D060C9499060C94050798
S11300400C9471070C94DD070C9449080C94B508C2
S11300500C9421090C948D090C94F909AC00B90095
S1130060C400D100DE00EB00FA00090114012301F1
S113007011241FBECFEFD4E0DEBFCDBF11E0A0E05E
S1130080B1E0EEEBFDE102C005900D92A033B107A3
S1130090D9F724E0A0E3B1E001C01D92AF38B20764
S11300A0E1F70E94E2010C94DD0E0C94000060FD67
S11300B019C0FB01FF230CF43196F595E795E45143
S11300C0FF4FA82FB92F9F012C5E3F4F8081807F67
S11300D080839C911296892B808335962E173F0737
S11300E0A9F7089561507109FB01FF230CF43196BF
S11300F0F595E795E451FF4FA82FB92F9F012C5E8A
S11301003F4F80818F7080838D919C911197829550
S11301109295907F9827807F98278D939D939081C7
S1130120892B808335962E173F0759F70895CF936F
S1130130DF93CDB7DEB728970FB6F894DEBF0FBEB6
S1130140CDBF90E0FC01F097EA30F10508F08AC0D9
S1130150E25DFF4F0C94740E81E090E09A838983F2
S113016025E030E03C832B833E832D8398878F8367
S113017083C01A82198281E090E09C838B839E83E2
S11301808D8318861F8278C081E090E09A838983EA
S11301909C838B832EE030E03E832D8398878F836E
S11301A06BC081E090E09A8389839C838B832BE0EE
S11301B030E03E832D8398878F835EC01A82198234
S11301C085E090E09C838B838BE090E09E838D831D
S11301D018861F8251C081E090E09A83898324E0CD
S11301E030E03C832B832BE030E03E832D839887E3
S11301F08F8342C081E090E09A83898324E030E0D9
S11302003C832B832FE030E03E832D8398878F83BC
S113021033C081E090E09A8389839C838B839E839F
S11302208D8318861F8228C081E090E09A83898399
S113023025E030E03C832B832FE030E03E832D83A8
S113024098878F8319C081E090E09A83898325E0A1
S113025030E03C832B832BE030E03E832D83988772
S11302608F830AC08FE090E09A8389839C838B8379
S11302709E838D8398878F83CE0101960E945700B9
S113028028960FB6F894DEBF0FBECDBFDF91CF9195
S113029008958F929F92AF92BF92CF92DF92EF9286
S11302A0FF92CF93DF934B015C01EA0124E630E037
S11302B040E050E00E94550E0F2EFAE0CF2ED12CD4
S11302C0E12CF12CF02DA70196010E94550EBE01E0
S11302D080E3820F0E9497002196C501B401A70113
S11302E096010E94550E862FBE01805D0E949700E4
S11302F0DF91CF91FF90EF90DF90CF90BF90AF90C0
S11303009F908F900895072E000C880B990B40E066
S113031050E00E94490108950F931F93CF93DF93F8
S113032006EC10E0F801C081D0E0E097BE0180E067
S113033090E044E050E00E944901C05DF801C083B0
S1130340DF91CF911F910F910895CF92DF92EF9299
S1130350FF920F931F93CF93DF93EC0188859985C8
S11303600196998788878C859D85892B81F440E047
S113037050E061E57EE08E819F810E941A0D40E08D
S113038050E06BE47EE08E819F810E941A0DC88448
S1130390D9840C811D810F2EF3E8EF2EF1E0FF2E9E
S11303A0F02D20E030E0A90160E070E0CB010E9474
S11303B0090CDF91CF911F910F91FF90EF90DF9087
S11303C0CF90089587EB8093E50087E08093E60063
S11303D08FE08093E70080EC8093E40086E08093D4
S11303E0C20088E98093C10083E38093C40048E09D
S11303F06CE871E080E091E00E94150E40E050E06E
S113040065EA71E086E191E00E942F0E0895CF9392
S1130410DF9300D000D0CDB7DEB78FE292E02FE0BB
S113042033E0FC0170979183808340968217930791
S1130430C1F7109200031092FF02EAE6F1E087E8A8
S113044091E09183808384EA91E0968F858FA1EC7B
S1130450B1E0B3AFA2AF1D921C92FA83E983EBE63D
S1130460F3E0FC83EB8389819A8106960E949C0EBB
S11304708B819C81E981FA81978B868B918F808F08
S113048087EA9DE0948F838F158214827D96FA8388
S1130490E983EB81FC81E05AFF4FFC83EB83898184
S11304A09A818E5D9140F9F6E2E0F2E011821082C9
S11304B01582148213821282E1E6F0E080E88083E0
S11304C01082109285001092840084E08093810051
S11304D081E080936F000F900F900F900F90DF9149
S11304E0CF910895CF93DF9300D0CDB7DEB79A8331
S11304F08983809128019091290106960E949C0E7F
S1130500892B59F489819A81909329018093280138
S113051061E070E006960E94BC0E0F900F90DF9190
S1130520CF9108950F931F93CF93DF93E0914401EC
S1130530F0914501309761F180912C0190912D014A
S1130540009731F1C0912A01D0912B01AA81BB817E
S1130550109779F0468157816085718516960D91C3
S11305601D912D913C911997401B510B620B730BFC
S11305707AF4FC012081318130932D0120932C01E8
S1130580D183C08390932B0180932A010E9472022D
S1130590DF91CF911F910F9108951F920F920FB683
S11305A00F9211242F933F934F935F936F937F93F5
S11305B08F939F93AF93BF93EF93FF9320913C014D
S11305C030913D014091840050918500C901032E72
S11305D0000CAA0BBB0BDC019927882760E070E0B4
S11305E0842B952BA62BB72B80933E0190933F0130
S11305F0A0934001B0934101B09B1BC04091840083
S113060050918500C9010196092E000CAA0BBB0B61
S1130610DC019927882760E070E0842B952BA62BBA
S1130620B72B80933E0190933F01A0934001B09378
S11306304101E091DE01F091DF01309739F060E093
S113064070E0809146019091470109950E949202C1
S1130650FF91EF91BF91AF919F918F917F916F9196
S11306605F914F913F912F910F900FBE0F901F906C
S113067018951F920F920FB60F9211242F933F9348
S11306804F935F936F937F938F939F93AF93BF9396
S1130690EF93FF9320913C0130913D014091840000
S11306A050918500C901032E000CAA0BBB0BDC0181
S11306B09927882760E070E0842B952BA62BB72B15
S11306C080933E0190933F01A0934001B093410178
S11306D0B09B1BC04091840050918500C9010196D4
S11306E0092E000CAA0BBB0BDC019927882760E0BC
S11306F070E0842B952BA62BB72B80933E0190930F
S11307003F01A0934001B0934101E091E001F091D9
S1130710E101309739F061E070E0809148019091F7
S1130720490109950E949202FF91EF91BF91AF9107
S11307309F918F917F916F915F914F913F912F91F5
S11307400F900FBE0F901F9018951F920F920FB627
S11307500F9211242F933F934F935F936F937F9343
S11307608F939F93AF93BF93EF93FF9320913C019B
S113077030913D014091840050918500C901032EC0
S1130780000CAA0BBB0BDC019927882760E070E002
S1130790842B952BA62BB72B80933E0190933F017E
S11307A0A0934001B0934101B09B1BC040918400D1
S11307B050918500C9010196092E000CAA0BBB0BB0
S11307C0DC019927882760E070E0842B952BA62B09
S11307D0B72B80933E0190933F01A0934001B093C7
S11307E04101E091E201F091E301309739F062E0D8
S11307F070E080914A0190914B0109950E94920208
S1130800FF91EF91BF91AF919F918F917F916F91E4
S11308105F914F913F912F910F900FBE0F901F90BA
S113082018951F920F920FB60F9211242F933F9396
S11308304F935F936F937F938F939F93AF93BF93E4
S1130840EF93FF9320913C0130913D01409184004E
S113085050918500C901032E000CAA0BBB0BDC01CF
S11308609927882760E070E0842B952BA62BB72B63
S113087080933E0190933F01A0934001B0934101C6
S1130880B09B1BC04091840050918500C901019622
S1130890092E000CAA0BBB0BDC019927882760E00A
S11308A070E0842B952BA62BB72B80933E0190935D
S11308B03F01A0934001B0934101E091E401F09124
S11308C0E501309739F063E070E080914C0190913C
S11308D04D0109950E949202FF91EF91BF91AF9152
S11308E09F918F917F916F915F914F913F912F9144
S11308F00F900FBE0F901F9018951F920F920FB676
S11309000F9211242F933F934F935F936F937F9391
S11309108F939F93AF93BF93EF93FF9320913C01E9
S113092030913D014091840050918500C901032E0E
S1130930000CAA0BBB0BDC019927882760E070E050
S1130940842B952BA62BB72B80933E0190933F01CC
S1130950A0934001B0934101B09B1BC0409184001F
S113096050918500C9010196092E000CAA0BBB0BFE
S1130970DC019927882760E070E0842B952BA62B57
S1130980B72B80933E0190933F01A0934001B09315
S11309904101E091E601F091E701309739F064E01C
S11309A070E080914E0190914F0109950E9492024E
S11309B0FF91EF91BF91AF919F918F917F916F9133
S11309C05F914F913F912F910F900FBE0F901F9009
S11309D018951F920F920FB60F9211242F933F93E5
S11309E04F935F936F937F938F939F93AF93BF9333
S11309F0EF93FF9320913C0130913D01409184009D
S1130A0050918500C901032E000CAA0BBB0BDC011D
S1130A109927882760E070E0842B952BA62BB72BB1
S1130A2080933E0190933F01A0934001B093410114
S1130A30B09B1BC04091840050918500C901019670
S1130A40092E000CAA0BBB0BDC019927882760E058
S1130A5070E0842B952BA62BB72B80933E019093AB
S1130A603F01A0934001B0934101E091E801F0916E
S1130A70E901309739F065E070E080915001909180
S1130A80510109950E949202FF91EF91BF91AF919C
S1130A909F918F917F916F915F914F913F912F9192
S1130AA00F900FBE0F901F9018951F920F920FB6C4
S1130AB00F9211242F933F934F935F936F937F93E0
S1130AC08F939F93AF93BF93EF93FF9320913C0138
S1130AD030913D014091840050918500C901032E5D
S1130AE0000CAA0BBB0BDC019927882760E070E09F
S1130AF0842B952BA62BB72B80933E0190933F011B
S1130B00A0934001B0934101B09B1BC0409184006D
S1130B1050918500C9010196092E000CAA0BBB0B4C
S1130B20DC019927882760E070E0842B952BA62BA5
S1130B30B72B80933E0190933F01A0934001B09363
S1130B404101E091EA01F091EB01309739F066E060
S1130B5070E0809152019091530109950E94920294
S1130B60FF91EF91BF91AF919F918F917F916F9181
S1130B705F914F913F912F910F900FBE0F901F9057
S1130B8018951F920F920FB60F9211242F933F9333
S1130B904F935F936F937F938F939F93AF93BF9381
S1130BA0EF93FF9320913C0130913D0140918400EB
S1130BB050918500C901032E000CAA0BBB0BDC016C
S1130BC09927882760E070E0842B952BA62BB72B00
S1130BD080933E0190933F01A0934001B093410163
S1130BE0B09B1BC04091840050918500C9010196BF
S1130BF0092E000CAA0BBB0BDC019927882760E0A7
S1130C0070E0842B952BA62BB72B80933E019093F9
S1130C103F01A0934001B0934101E091EC01F091B8
S1130C20ED01309739F067E070E0809154019091C4
S1130C30550109950E949202FF91EF91BF91AF91E6
S1130C409F918F917F916F915F914F913F912F91E0
S1130C500F900FBE0F901F9018951F920F920FB612
S1130C600F9211242F933F934F935F936F937F932E
S1130C708F939F93AF93BF93EF93FF9320913C0186
S1130C8030913D014091840050918500C901032EAB
S1130C90000CAA0BBB0BDC019927882760E070E0ED
S1130CA0842B952BA62BB72B80933E0190933F0169
S1130CB0A0934001B0934101B09B1BC040918400BC
S1130CC050918500C9010196092E000CAA0BBB0B9B
S1130CD0DC019927882760E070E0842B952BA62BF4
S1130CE0B72B80933E0190933F01A0934001B093B2
S1130CF04101E091EE01F091EF01309739F068E0A5
S1130D0070E0809156019091570109950E949202DA
S1130D10FF91EF91BF91AF919F918F917F916F91CF
S1130D205F914F913F912F910F900FBE0F901F90A5
S1130D3018951F920F920FB60F9211242F933F9381
S1130D404F935F936F937F938F939F93AF93BF93CF
S1130D50EF93FF9320913C0130913D014091840039
S1130D6050918500C901032E000CAA0BBB0BDC01BA
S1130D709927882760E070E0842B952BA62BB72B4E
S1130D8080933E0190933F01A0934001B0934101B1
S1130D90B09B1BC04091840050918500C90101960D
S1130DA0092E000CAA0BBB0BDC019927882760E0F5
S1130DB070E0842B952BA62BB72B80933E01909348
S1130DC03F01A0934001B0934101E091F001F09103
S1130DD0F101309739F069E070E080915801909109
S1130DE0590109950E949202FF91EF91BF91AF9131
S1130DF09F918F917F916F915F914F913F912F912F
S1130E000F900FBE0F901F9018951F920F920FB660
S1130E100F9211242F933F934F935F936F937F937C
S1130E208F939F93AF93BF93EF93FF9320913C01D4
S1130E3030913D014091840050918500C901032EF9
S1130E40000CAA0BBB0BDC019927882760E070E03B
S1130E50842B952BA62BB72B80933E0190933F01B7
S1130E60A0934001B0934101B09B1BC0409184000A
S1130E7050918500C9010196092E000CAA0BBB0BE9
S1130E80DC019927882760E070E0842B952BA62B42
S1130E90B72B80933E0190933F01A0934001B09300
S1130EA04101E091F201F091F301309739F06AE0E9
S1130EB070E080915A0190915B0109950E94920221
S1130EC0FF91EF91BF91AF919F918F917F916F911E
S1130ED05F914F913F912F910F900FBE0F901F90F4
S1130EE018951F920F920FB60F9211242F933F93D0
S1130EF04F935F936F937F938F939F93AF93BF931E
S1130F00EF93FF9320913C0130913D014091840087
S1130F1050918500C901032E000CAA0BBB0BDC0108
S1130F209927882760E070E0842B952BA62BB72B9C
S1130F3080933E0190933F01A0934001B0934101FF
S1130F40B09B1BC04091840050918500C90101965B
S1130F50092E000CAA0BBB0BDC019927882760E043
S1130F6070E0842B952BA62BB72B80933E01909396
S1130F703F01A0934001B0934101E091F401F0914D
S1130F80F501309739F06BE070E080915C0190914D
S1130F905D0109950E949202FF91EF91BF91AF917B
S1130FA09F918F917F916F915F914F913F912F917D
S1130FB00F900FBE0F901F9018951F920F920FB6AF
S1130FC00F9211242F933F934F935F936F937F93CB
S1130FD08F939F93AF93BF93EF93FF9320913C0123
S1130FE030913D014091840050918500C901032E48
S1130FF0000CAA0BBB0BDC019927882760E070E08A
S1131000842B952BA62BB72B80933E0190933F0105
S1131010A0934001B0934101B09B1BC04091840058
S113102050918500C9010196092E000CAA0BBB0B37
S1131030DC019927882760E070E0842B952BA62B90
S1131040B72B80933E0190933F01A0934001B0934E
S11310504101E091F601F091F701309739F06CE02D
S113106070E080915E0190915F0109950E94920267
S1131070FF91EF91BF91AF919F918F917F916F916C
S11310805F914F913F912F910F900FBE0F901F9042
S113109018951F920F920FB60F9211242F933F931E
S11310A04F935F936F937F938F939F93AF93BF936C
S11310B0EF93FF9320913C0130913D0140918400D6
S11310C050918500C901032E000CAA0BBB0BDC0157
S11310D09927882760E070E0842B952BA62BB72BEB
S11310E080933E0190933F01A0934001B09341014E
S11310F0B09B1BC04091840050918500C9010196AA
S1131100092E000CAA0BBB0BDC019927882760E091
S113111070E0842B952BA62BB72B80933E019093E4
S11311203F01A0934001B0934101E091F801F09197
S1131130F901309739F06DE070E080916001909191
S1131140610109950E949202FF91EF91BF91AF91C5
S11311509F918F917F916F915F914F913F912F91CB
S11311600F900FBE0F901F9018951F920F920FB6FD
S11311700F9211242F933F934F935F936F937F9319
S11311808F939F93AF93BF93EF93FF9320913C0171
S113119030913D014091840050918500C901032E96
S11311A0000CAA0BBB0BDC019927882760E070E0D8
S11311B0842B952BA62BB72B80933E0190933F0154
S11311C0A0934001B0934101B09B1BC040918400A7
S11311D050918500C9010196092E000CAA0BBB0B86
S11311E0DC019927882760E070E0842B952BA62BDF
S11311F0B72B80933E0190933F01A0934001B0939D
S11312004101E091FA01F091FB01309739F06EE071
S113121070E0809162019091630109950E949202AD
S1131220FF91EF91BF91AF919F918F917F916F91BA
S11312305F914F913F912F910F900FBE0F901F9090
S113124018951F920F920FB60F9211242F933F936C
S11312504F935F936F937F938F939F93AF93BF93BA
S1131260EF93FF9320913C0130913D014091840024
S113127050918500C901032E000CAA0BBB0BDC01A5
S11312809927882760E070E0842B952BA62BB72B39
S113129080933E0190933F01A0934001B09341019C
S11312A0B09B1BC04091840050918500C9010196F8
S11312B0092E000CAA0BBB0BDC019927882760E0E0
S11312C070E0842B952BA62BB72B80933E01909333
S11312D03F01A0934001B0934101E091FC01F091E2
S11312E0FD01309739F06FE070E0809164019091D6
S11312F0650109950E949202FF91EF91BF91AF9110
S11313009F918F917F916F915F914F913F912F9119
S11313100F900FBE0F901F9018951F920F920FB64B
S11313200F9211242F933F934F935F936F937F9367
S11313308F939F93AF93BF93EF93FF9320913C01BF
S113134030913D014091840050918500C901032EE4
S1131350000CAA0BBB0BDC019927882760E070E026
S1131360842B952BA62BB72B80933E0190933F01A2
S1131370A0934001B0934101B09B1BC040918400F5
S113138050918500C9010196092E000CAA0BBB0BD4
S1131390DC019927882760E070E0842B952BA62B2D
S11313A0B72B80933E0190933F01A0934001B093EB
S11313B04101E091FE01F091FF01309739F060E1C5
S11313C070E0809166019091670109950E949202F4
S11313D0FF91EF91BF91AF919F918F917F916F9109
S11313E05F914F913F912F910F900FBE0F901F90DF
S11313F018951F920F920FB60F9211242F933F93BB
S11314004F935F936F937F938F939F93AF93BF9308
S1131410EF93FF9320913C0130913D014091840072
S113142050918500C901032E000CAA0BBB0BDC01F3
S11314309927882760E070E0842B952BA62BB72B87
S113144080933E0190933F01A0934001B0934101EA
S1131450B09B1BC04091840050918500C901019646
S1131460092E000CAA0BBB0BDC019927882760E02E
S113147070E0842B952BA62BB72B80933E01909381
S11314803F01A0934001B0934101E0910002F0912B
S11314900102309739F061E170E080916801909128
S11314A0690109950E949202FF91EF91BF91AF915A
S11314B09F918F917F916F915F914F913F912F9168
S11314C00F900FBE0F901F901895EF92FF920F93FD
S11314D01F93CF93DF937B01EB01A881B981109710
S11314E061F1FC01068117812085318516964D91A5
S11314F05D916D917C91199704171507260737079D
S113150014F41BC0DF01ED91FC911197309749F061
S113151046815781608571850417150726073707AB
S11315208CF7EC01F983E883109721F4F701918398
S1131530808307C08D939C9304C0EC01B983A88376
S1131540F5CFDF91CF911F910F91FF90EF90089508
S1131550EF92FF920F931F93CF93DF937B01EB01E5
S1131560A881B981109761F1FC0102811381248162
S1131570358112964D915D916D917C91159704176B
S113158015072607370714F41BC0DF01ED91FC9102
S11315901197309749F04281538164817581041712
S11315A01507260737078CF7EC01F983E8831097B2
S11315B021F4F7019183808307C08D939C9304C029
S11315C0EC01B983A883F5CFDF91CF911F910F91DF
S11315D0FF90EF900895DC01ED91FC911197309705
S11315E059F48FEF8093EC008093ED008093EE002C
S11315F081E083BF8895FDCF208131812D933C9379
S1131600CF0108951F920F920FB60F9211242F93BA
S11316103F934F935F936F937F938F939F93EF9336
S1131620FF9380913C0190913D01019690933D017F
S113163080933C01E0914201F0914301309701F124
S1131640428153816481758186179707C9F4CA0161
S11316502091840030918500421B530B4130510589
S113166029F48091840090918500019690938900DB
S113167080938800EFE6F0E080818260808305C07B
S1131680EFE6F0E080818D7F8083FF91EF919F9161
S11316908F917F916F915F914F913F912F910F9017
S11316A00FBE0F901F9018951F920F920FB60F92B6
S11316B01124CF92DF92EF92FF922F933F934F9397
S11316C05F936F937F938F939F93AF93BF93EF93A6
S11316D0FF93C0903C01D0903D0120918400309153
S11316E08500B0990FC00D2C000CEE08FF08D60140
S11316F0992788276901E12CF12CC82AD92AEA2ADA
S1131700FB2A15C020918400309185008FEFC81A00
S1131710D80A0D2C000CEE08FF08D601992788275B
S11317206901E12CF12CC82AD92AEA2AFB2AE09182
S11317304201F0914301309709F442C082819381C0
S1131740A481B5818C199D09AE09BF091816190623
S11317501A061B06ECF182E491E00E94EB0A64E4B1
S113176071E00E94650AE0914201F09143013097D3
S113177039F182819381A481B5818C199D09AE09C7
S1131780BF09181619061A061B062CF721C09C015E
S11317904091840050918500841B950B019731F48E
S11317A020918400309185002F5F3F4F3093890052
S11317B020938800EFE6F0E080818260808305C09A
S11317C0EFE6F0E080818D7F80830E9492020CC05E
S11317D082819381A481B58120913C0130913D01A6
S11317E02A173B0769F7D3CFFF91EF91BF91AF91D0
S11317F09F918F917F916F915F914F913F912F9125
S1131800FF90EF90DF90CF900F900FBE0F901F903E
S113181018953F924F925F926F927F928F929F9210
S1131820AF92BF92CF92DF92EF92FF920F931F93EA
S1131830CF93DF932B013C0149015A018FB7807884
S1131840382EF8948EE291E00E94EB0AEC011B879B
S11318500A87FD86EC86DF86CE86332061F0E09130
S11318602801F09129010280F381E02D8281938186
S1131870A481B58108C080913E0190913F01A0915F
S11318804001B0914101480E591E6A1E7B1E4A82D6
S11318905B826C827D82181419041A041B0444F0C0
S11318A00F2E88248A94982CA82CFFE7BF2EF02DA5
S11318B0840C951CA61CB71C8E829F82A886B986B0
S11318C080913C0190913D014091840050918500AC
S11318D0B0990EC0092E000CAA0BBB0BDC01992792
S11318E0882760E070E0842B952BA62BB72B13C0C0
S11318F020918400309185000196092E000CAA0BDA
S1131900BB0BDC0199278827A90160E070E0842BD8
S1131910952BA62BB72B481A590A6A0A7B0A14146A
S1131920150416041704ACF562E471E0CE010E94BC
S1131930A80AE0914201F0914301309721F182819C
S11319409381A481B58120913C0130913D012A17F6
S11319503B07C9F49C014091840050918500841B8D
S1131960950B019731F420918400309185002F5F0D
S11319703F4F3093890020938800EFE6F0E08081A8
S11319808260808341C0EFE6F0E080818D7F8083B8
S11319903BC064E471E0CE010E94650A3320B9F1D2
S11319A080912C0190912D01009781F1E0912A0101
S11319B0F0912B0120914401309145010281138162
S11319C0D90116964D915D916D917C911997D8012D
S11319D016960D911D912D913C911997401B510B19
S11319E0620B730B9AF4DC012D913C9111973093A7
S11319F02D0120932C01ED93FC9390932B01809364
S1131A002A010E94720202C0332009F07894CE01A8
S1131A10DF91CF911F910F91FF90EF90DF90CF90C6
S1131A20BF90AF909F908F907F906F905F904F90FA
S1131A303F900895CF92DF92EF92FF920F931F93FE
S1131A40CF93DF93EC017B016A011FB71078F89400
S1131A50A881B981109761F11496ED91FC911597C5
S1131A60309741F0A081B1811496ED91FC911597C6
S1131A703097C1F720912801309129012A173B079B
S1131A8021F0112309F43DC007C0112309F43CC01F
S1131A9078948FEF9FEF52C08A819B810097D1F198
S1131AA0FC011582148236C0789480E090E046C030
S1131AB0809128019091290199838883112329F029
S1131AC08A819B81019709F07894B601CE01F701D0
S1131AD00995F82E092F8FB7F894198218828A81F4
S1131AE09B818230910538F01B821A82FC01158299
S1131AF014820E947202112351F078948F2D902F3A
S1131B001DC08FEF9FEF1AC08FEF9FEF17C08F2D6F
S1131B10902F14C03B832A83F901D583C483CD015C
S1131B200E947202E0912801F0912901828193813F
S1131B30892B09F4B9CFF983E883C2CFDF91CF9120
S1131B401F910F91FF90EF90DF90CF900895009137
S1131B5028011091290184E491E00E94EB0AEC0130
S1131B60D80113969C938E93129778944E855F8533
S1131B706C857D858A859B850E941A0D8FB7F894A4
S1131B8080912E0190912F0199838883D0932F0106
S1131B90C0932E01E0912A01F0912B010081118163
S1131BA0E8012A813B81A0914401B091450110973D
S1131BB0C1F02115310559F216968D919D910D9024
S1131BC0BC91A02DE9014E815F8168857985841BD4
S1131BD0950BA60BB70B181619061A061B060CF064
S1131BE0B6CF10932B0100932A0180912C01909180
S1131BF02D0191838083F0932D01E0932C01A0911A
S1131C002A01B0912B011496ED91FC911597309710
S1131C1041F0A081B1811496ED91FC911597309714
S1131C20C1F7CD010E94720292CF4231B8F42FB7AE
S1131C30F89450E0440F551FFA01EA5BFE4F91837C
S1131C408083FA01E252FE4F7183608341E050E0E9
S1131C50FC015383428322230CF4789408958C016D
S1131C607B016A018FB7F8940E9407027894E1140B
S1131C70F10441F020E030E0A90160E070E0CB0124
S1131C800E94090C8FB7F8940E949202789481E024
S1131C9083BF8895FDCF21E030E0FC0135832483A8
S1131CA00895FC01178216820895052E97FB1EF4F1
S1131CB000940E946C0E57FD07D00E947A0E07FC18
S1131CC003D04EF40C946C0E5095409530952195AC
S1131CD03F4F4F4F5F4F0895909580957095619554
S1131CE07F4F8F4F9F4F0895EE0FFF1F0590F49184
S1131CF0E02D0994A1E21A2EAA1BBB1BFD010DC005
S1131D00AA1FBB1FEE1FFF1FA217B307E407F507A7
S1131D1020F0A21BB30BE40BF50B661F771F881F83
S1131D20991F1A9469F760957095809590959B0119
S1131D30AC01BD01CF010895DC012D923D924D927D
S1131D405D926D927D928D929D92AD92BD92CD9257
S1131D50DD92ED92FD920D931D93CD93DD93FF9152
S1131D60EF918DB78D938EB78D938FB78D93ED9340
S1131D70FD93882799270994DC01CB0181309105D3
S1131D80811D2D903D904D905D906D907D908D9036
S1131D909D90AD90BD90CD90DD90ED90FD900D9116
S1131DA01D91CD91DD91ED91FD910D90F894FEBFC3
S1111DB00FBEEDBFED91FD910994F894FFCFA5
S1131DBE00000000160100000000000000000000FA
S1131DCE000000000000000000003001340100009B
S1131DDE0000000000000000020202026A011F025D
S9030000FC
